:1011D100A1E600C4EA00D4C200C8D500D6DCD2BB67
:1011E10000D6DCB6FE00D6DCC8FD00D6DCCBC400E0
:1011F100D6DCCEE500D6DCC1F900D6DCC8D500C40A
:10120100D6D6D33A2000C4D6D6D33A20B9D800C90D
:10121100E8D6C3C8D5C6DA20202020202000C9E89E
:10122100D6C3CAB1BCE420202020202000C9E8D6C2
:10123100C3CEC2BFD8B7B6CEA7202000C9E8D6C357
:10124100C4D6D6D320202020202000C9E8D6C3C888
:10125100D5C6DA3A2000C9E8D6C3CAB1BCE43A20FF
:1012610000CAB100B7D600C3EB00C9E8D6C3CEC2ED
:10127100BFD8B7B6CEA73A2000C9E8D6C3C4D6D6E0
:10128100D33A2000BFAA202000B9D8202000C9E805
:10129100D6C3B3C9B9A6A3A100B4EDCEF3B5C4D6E4
:1012A100B5A3A100BBB6D3AD210057656C636F6DCB
:1012B100652100D6C6D7F7C8CBD4B1A3BACDF2CE3B
:1012C100BAE7F700C2DEBAC3D2C720202020CEE29F
:1012D100B3D0CFDC0020202020C4D6D6D3CAB1BCE5
:1012E100E4B5BDC1CB00CFD6D4DACAC720202020B7
:1012F10020202020202000202000C3EB202000B04F
:10130100B4C8CED2E2BCFCB9D8B1D5CCE1D0D100C1
:101A98000323000018022130D40226EA8401320010
:061AA800013300013800CB
:10171400C3EE648094805040EF24FFFFEE34FFFE5C
:10172400EFF4FDEEF4FC120ABE8F3C8E3B8D3A8C36
:1017340039E4FFFE7DC87C40AB3CAA3BA93AA839FA
:101744001209B3E4FBFAF9783F1208C2120AF7C38C
:10175400E49FFFE49EFE802EAD07AC06EC120ABEA9
:101764008F3C8E3B8D3A8C39E4FFFE7DC87C40ABC8
:101774003CAA3BA93AA8391209B3E4FBFAF9783F29
:071784001208C2120AF7224D
:100C3C007F88121AD8C3E5346480948050047F2DC9
:100C4C00800FAE34AF357C277D10120BA3EF243010
:100C5C00FF121AF6AF35AE34121BB07C277D101282
:100C6C000BA37E037FE8CFCDCFCECCCE120BA3EF60
:100C7C002430FF121AF6AF35AE34121BB07C037D54
:100C8C00E8120BA37E007F64CFCDCFCECCCE120B5F
:100C9C00A3EF2430FF121AF67F2E121AF6AF35AEE0
:100CAC0034121BB07C007D64120BA37E007F0ACF34
:100CBC00CDCFCECCCE120BA3EF2430FF121AF6AF51
:100CCC0035AE34121BB07C007D0A120BA3ED243020
:100CDC00FF121AF67BFF7A1179D17D037F0212186D
:100CEC003D7F94121AD87F20121AF67F48121AF6FA
:100CFC00C3E5216480948050047F2D80027F2012F4
:100D0C001AF6AF22AE21121BB07C277D10120BA35A
:100D1C00EF2430FF121AF6AF22AE21121BB07C2743
:100D2C007D10120BA37E037FE8CFCDCFCECCCE129D
:100D3C000BA3EF2430FF121AF6AF22AE21121BB018
:100D4C007C037DE8120BA37E007F64CFCDCFCECC8D
:100D5C00CE120BA3EF2430FF121AF67F2E121AF6C6
:100D6C00AF22AE21121BB07C007D64120BA37E005F
:100D7C007F0ACFCDCFCECCCE120BA3EF2430FF12F7
:100D8C001AF67F8C121AD87F20121AF67F4C121A80
:100D9C00F6C3E5266480948050047F2D80027F206A
:100DAC00121AF6AF27AE26121BB07C277D10120B41
:100DBC00A3EF2430FF121AF6AF27AE26121BB07C1D
:100DCC00277D10120BA37E037FE8CFCDCFCECCCEE8
:100DDC00120BA3EF2430FF121AF6AF27AE26121B0C
:100DEC00B07C037DE8120BA37E007F64CFCDCFCE09
:100DFC00CCCE120BA3EF2430FF121AF67F2E121A50
:100E0C00F6AF27AE26121BB07C007D64120BA37EBE
:100E1C00007F0ACFCDCFCECCCE120BA3EF2430FF68
:100E2C00121AF67F90121AD8E50AC4540F2430FF18
:100E3C00121AF6E50A540F2430FF121AF67F3A12F2
:100E4C001AF6E509C4540F2430FF121AF6E50954BA
:100E5C000F2430FF121AF67F3A121AF6E508C45422
:100E6C000F2430FF121AF6E508540F2430FF121A23
:100E7C00F67F80121AD8E50EC4540F2430FF121AD4
:100E8C00F6E50E540F2430FF121AF67BFF7A117917
:100E9C00D47D01E4FF12183DE50CC4540F2430FF3F
:100EAC00121AF6E50C540F2430FF121AF67BFF7A57
:100EBC001179D77D03E4FF12183DE50BC4540F24C0
:100ECC0030FF121AF6E50B540F2430FF121AF67B82
:100EDC00FF7A1179DA7D05E4FF12183DE50D14B4A3
:100EEC0007005060900EFE75F003A4C58325F0C575
:100EFC008373020F13020F1B020F23020F2B020F1F
:100F0C0033020F3B020F437BFF7A1179DD802E7B7E
:100F1C00FF7A1179E280267BFF7A1179E7801E7BBC
:100F2C00FF7A1179EC80167BFF7A1179F1800E7BB8
:100F3C00FF7A1179F680067BFF7A1179FB7D06E446
:100F4C00FF12183D7BFF3001547A127900E4FD7FCB
:100F5C000312183DE525C4540F2430FF121AF6E590
:100F6C0025540F2430FF121AF67F3A121AF6E52494
:100F7C00C4540F2430FF121AF6E524540F2430FF0A
:100F8C00121AF67F3A121AF6E523C4540F2430FFD6
:100F9C00121AF6E523540F2430FF021AF67A12794E
:090FAC0007E4FD7F0312183D2249
:10178B007BFF7A127910E4FDFF12183D7BFF7A1272
:10179B00791FE4FD7F0112183D7BFF7A12792EE44D
:1017AB00FD7F0212183D7BFF7A12793DE4FD7F032A
:1017BB0012183DE53314600E14600F1460102403EF
:1017CB0070117F87800A7F9780067F8F80027F9FB3
:0D17DB00121AD87F1B121AF67F20021AF690
:101311007BFF7A12794CE4FDFF12183D7F90121A7F
:10132100D8E5282430FF121AF6E5292430FF121AD5
:10133100F67BFF7A1179D47D017F0112183DE52AF0
:101341002430FF121AF6E52B2430FF121AF67BFF28
:101351007A1179D77D037F0112183DE52C2430FFE6
:10136100121AF6E52D2430FF121AF67BFF7A117955
:10137100DA7D057F0112183DE52E14B40700506097
:1013810090138F75F003A4C58325F0C583730213F1
:10139100A40213AC0213B40213BC0213C40213CC93
:1013A1000213D47BFF7A1179DD802E7BFF7A1179CC
:1013B100E280267BFF7A1179E7801E7BFF7A117923
:1013C100EC80167BFF7A1179F1800E7BFF7A11791F
:1013D100F680067BFF7A1179FB7D067F0112183DAD
:1013E100E532B4070050419013EFF8282873021436
:1013F1000402140802140C0214100214140214182A
:101401000214247F88801E7F88800E7F8A80167F49
:101411008A80067F8C800E7F8C121AD87F20121A48
:0D142100F680057F8F121AD87F1E021AF682
:1015E5007BFF7A127957E4FDFF12183D7F90121A9E
:1015F500D8E5282430FF121AF6E5292430FF121AFF
:10160500F67BFF7A1279627D017F0112183DE52A8A
:101615002430FF121AF6E52B2430FF121AF67BFF51
:101625007A1279657D037F0112183DE52C2430FF80
:10163500121AF6E52D2430FF121AF67BFF7A12797D
:10164500687D057F0112183DE5321460141460159C
:1016550014601614601714601B240570217F8880A0
:101665000E7F8880117F8A80067F8A80097F8C1291
:101675001AD8800A7F8C121AD87F20121AF67F1E7C
:03168500021AF650
:10142E007BFF7A12796BE4FDFF12183D7F91121A41
:10143E00D87F48121AF67F97121AD87F4C121AF6D6
:10144E007F88121AD8E52870047F2B80027F2D1218
:10145E001AF6E5292430FF121AF6E52A2430FF1277
:10146E001AF6E52B2430FF121AF67F2E121AF6E525
:10147E002C2430FF121AF67F8D121AD8E52D700427
:10148E007F2B80027F2D121AF6E52E2430FF121AC2
:10149E00F6E52F2430FF121AF6E5302430FF121A2B
:1014AE00F67F2E121AF6E5312430FF121AF6E532C7
:1014BE00B40A0050569014CAF82828730214E80291
:1014CE0014EC0214F00214F40214F80214FC0215C7
:1014DE000002150402150B02150F7F98801A7F98D3
:1014EE0080217F9980127F9980197F9A80157F9D28
:1014FE0080067F9D800D7F9E121AD8800E7F9E8063
:10150E00027F9F121AD87F20121AF67F1E021AF639
:10151E007BFF7A12797AE4FDFF12183DE5287BFFF6
:10152E0060067A12798580047A12798AE4FD7F0149
:10153E0012183DE5292430FF121AF6E52A2430FF51
:10154E00121AF67BFF7A1279627D037F0112183D23
:10155E00E52B2430FF121AF6E52C2430FF121AF672
:10156E007BFF7A1279657D057F0112183DE52D24EA
:10157E0030FF121AF6E52E2430FF121AF67BFF7A90
:10158E001279687D077F0112183DE532B4070050CD
:10159E00419015A6F82828730215BB0215BF021537
:1015AE00C30215C70215CB0215CF0215D67F888050
:1015BE00127F8A800E7F8A80117F8C80067F8C80BE
:1015CE00097F8E121AD8800A7F8E121AD87F2012A7
:0715DE001AF67F1E021AF647
:10000E0030B0030201A77F0A7E00121AB830B00387
:10001E000201A4300005C20002019FE53824FE60F3
:10002E00281470030200B41470030201011470034B
:10003E0002014A2404600302019FE5337006753302
:10004E000302019F153302019FE53224FE60212435
:10005E00FE602F240424FA5005603902019F742893
:10006E002532F8E6B40905E4F602019F0602019F67
:10007E0074282532F8E6B40105E4F602019F060263
:10008E00019F74282532F8E6B40305E4F602019FB9
:10009E000602019F74282532F8E6B40705760102A0
:1000AE00019F0602019FE53224FE603524FE603179
:1000BE00240324FB50192406600302019F74282593
:1000CE0032F8E6B40205E4F602019F0602019F74BF
:1000DE00282532F8E6B40905E4F602019F0602016E
:1000EE009F74282532F8E6B40505E4F602019F0652
:1000FE0002019FE53214603424FC601014602D243C
:10010E000424F85017240A600302019F7428253234
:10011E00F8E6B40104E4F68078068075742825327A
:10012E00F8E6B40904E4F680680680657428253282
:10013E00F8E6B40104E4F68058068055E532146002
:10014E002224FE603E24FE603A240324FB50242425
:10015E0007703E74282532F8E6B40104E4F68031C7
:10016E0006802E74282532F8E6B40204E4F68021C7
:10017E0006801E74282532F8E6B40904E4F68011D0
:10018E0006800E74282532F8E6B40504E4F68001E4
:10019E00067F01121AD830B0FD30B1030203347F4E
:1001AE000A7E00121AB830B103020331300005C2C4
:1001BE000002032CE53824FE602914700302024B62
:1001CE001470030202951470030202DB2404600310
:1001DE0002032CE533B40306E4F53302032C053396
:1001EE0002032CE53224FE602024FE602D2404241C
:1001FE00FA5005603602032C74282532F8E6700595
:10020E00760902032C1602032C74282532F8E670A8
:10021E0005760102032C1602032C74282532F8E60B
:10022E007005760302032C1602032C74282532F86F
:10023E00E6B40105760702032C1602032CE53224E0
:10024E00FE603324FE602F240324FB501824066026
:10025E000302032C74282532F8E670057602020399
:10026E002C1602032C74282532F8E6700576090246
:10027E00032C1602032C74282532F8E67005760539
:10028E0002032C1602032CE53214603224FC60109B
:10029E0014602B240424F85016240A600302032C45
:1002AE0074282532F8E670047601807216806F7419
:1002BE00282532F8E670047609806316806074286B
:1002CE002532F8E6700476018054168051E532141A
:1002DE00602124FE603B24FE6037240324FB502261
:1002EE002407703A74282532F8E670047601802EC1
:1002FE0016802B74282532F8E670047602801F16BD
:10030E00801C74282532F8E6700476098010168059
:10031E000D74282532F8E6700476058001167F01EB
:10032E00121AD830B1FD20B24E7F0A7E00121AB8D2
:10033E0020B241300004C2008035E53824FD60173C
:10034E0014602114600424037025E53270057532A3
:10035E0006801C15328018E5327005753205800F47
:10036E001532800BE5327005753209800215327F29
:10037E0001121AD830B2FD20B34B7F0A7E00121A3A
:10038E00B820B33E300004C2008032E53824FD6050
:10039E001514601D14600424037022E532B40602A5
:1003AE00801405328017E532B405028009053280CB
:1003BE000CE532B40905E4F532800205327F0112F4
:1003CE001AD830B3FD30A1030208877F0A7E0012CF
:1003DE001AB830A103020884300005C20002087F5B
:1003EE00E53814602A1470030205B1147003020676
:1003FE001C1470030206661470030207D9240560EC
:10040E000302087FE4F532F53375380102087FE503
:10041E00332402F53824FD603D1460641470030229
:10042E0005812403600302087FE50EC4540FF528EE
:10043E00E50E540FF529E50CC4540FF52AE50C54BE
:10044E000FF52BE50BC4540FF52CE50B540FF52DC2
:10045E00850D2E02087FE50AC4540FF528E50A54CF
:10046E000FF529E509C4540FF52AE509540FF52BAC
:10047E00E508C4540FF52CE508540FF52D02087F3E
:10048E00C3E5216480948050057528018003E4F54E
:10049E0028AF22AE21121BB07C277D10120BA38F2A
:1004AE0029AF22AE21121BB07C277D10120BA37E2A
:1004BE00037FE8CFCDCFCECCCE120BA38F2AAF22A7
:1004CE00AE21121BB07C037DE8120BA37E007F646D
:1004DE00CFCDCFCECCCE120BA38F2BAF22AE21120F
:1004EE001BB07C007D64120BA37E007F0ACFCDCFA4
:1004FE00CECCCE120BA38F2CC3E5266480948050F5
:10050E0005752D018003E4F52DAF27AE26121BB025
:10051E007C277D10120BA38F2EAF27AE26121BB099
:10052E007C277D10120BA37E037FE8CFCDCFCECCE0
:10053E00CE120BA38F2FAF27AE26121BB07C037DDE
:10054E00E8120BA37E007F64CFCDCFCECCCE120BA4
:10055E00A38F30AF27AE26121BB07C007D64120B2A
:10056E00A37E007F0ACFCDCFCECCCE120BA38F3180
:10057E0002087FA201E433F528E525C4540FF529BE
:10058E00E525540FF52AE524C4540FF52BE5245424
:10059E000FF52CE523C4540FF52DE523540FF52E3E
:1005AE0002087FE52AC454F0452BFFD39412400372
:1005BE00020861E52CC454F0452DFE94314003022F
:1005CE000861EF7003020861EE7003020861E5280E
:1005DE00C454F04529F50EE52AC454F0452BF50C0C
:1005EE00E52CC454F0452DF50B852E0DE4FD7F8EC4
:1005FE001219CBAD0B7F861219CBAD0C7F88121959
:10060E00CBAD0D7F8A1219CBAD0E7F8C803AE528CB
:10061E00C454F04529FFD39423503A8F0AE52AC4D7
:10062E0054F0452BF509E52CC454F0452DF508E49E
:10063E00FD7F8E1219CBAD087F801219CBAD097FCD
:10064E00821219CBAD0A7F841219CB7D807F8E1258
:10065E0019CB02083E020861E528AF2A703AFE7CEB
:10066E00037DE8120B91AA06AB07AF297E007C270B
:10067E007D10120B91EF2BFDEE3AFCE52B75F0641D
:10068E00A42DFDE5F03CFCE52C75F00AA4AEF02D92
:10069E00F522EE3CF521803F7E007C037DE8120BB7
:1006AE0091AA06AB07AF297E007C277D10120B9115
:1006BE00EF2BFDEE3AFCE52B75F064A42DFDE5F075
:1006CE003CFCE52C75F00AA42DFFE5F03CFEC3E4DE
:1006DE009FF522E49EF521E52DAF2F703AFE7C03A7
:1006EE007DE8120B91AA06AB07AF2E7E007C277D0C
:1006FE0010120B91EF2BFDEE3AFCE53075F064A471
:10070E002DFDE5F03CFCE53175F00AA4AEF02DF5BB
:10071E0027EE3CF526803F7E007C037DE8120B9190
:10072E00AA06AB07AF2E7E007C277D10120B91EF31
:10073E002BFDEE3AFCE53075F064A42DFDE5F03CA2
:10074E00FCE53175F00AA42DFFE5F03CFEC3E49FF5
:10075E00F527E49EF526C3E5229527E5266480F865
:10076E00E5216480985018E5276222E5266221E58E
:10077E00216226E5226227E5276222E5266221C252
:10078E008CE521FF3395E0AD077F05121B147F0A20
:10079E007E00121AB8E522FD7F06121B147F0A7E18
:1007AE0000121AB8E526FF3395E0AD077F07121B3E
:1007BE00147F0A7E00121AB8E527FD7F08121B145B
:1007CE007F0A7E00121AB8D28C8065E529C454F0D7
:1007DE00452AFFD39423507BE52824FF92018F25D1
:1007EE00E52BC454F0452CF524E52DC454F0452ECC
:1007FE00F523C28CFD7F01121B147F0A7E00121A94
:10080E00B8AD247F02121B147F0A7E00121AB8ADF7
:10081E00257F03121B147F0A7E00121AB8A201E470
:10082E0033FD7F04121B147F0A7E00121AB8D28C7D
:10083E007F01121AD87BFF7A12798F7D027F011207
:10084E00183D7F207E03121AB87F01121AD8E4F5E4
:10085E0038801E7F01121AD87BFF7A12799A7D0298
:10086E007F0112183D7F207E03121AB87F01121AE3
:10087E00D87F01121AD830A1FD20A0307F0A7E0049
:10088E00121AB820A023300004C2008017E4F532FB
:10089E00E53824FE24FC500924057008E4F5388060
:0D08AE00037538017F01121AD830A0FD2219
:101B8300758CFC758A66758901D2AFD2A9D28C2275
:100FB5001218D4121B837BFF7A1279A57D03E4FFF7
:100FC50012183D7BFF7A1279AB7D027F0112183D25
:100FD5007BFF7A1279B4E4FD7F0212183D7BFF7A1C
:100FE5001279C5E4FD7F0312183D7F01121A768F31
:100FF500237F017E00121AB87F02121A768F247F92
:10100500017E00121AB87F03121A768F257F017EA2
:1010150000121AB87F04121A76EF24FF92017F019D
:101025007E00121AB87F05121A76EF7F00FEC00700
:10103500C0067F06121A76EFFDD0E0F521D0E04D0F
:10104500F5227F017E00121AB87F07121A76EF7F0C
:1010550000FEC007C0067F08121A76EFFDD0E0F546
:1010650026D0E04DF5277F017E00121AB8121B44E9
:101075008E348F357FDC7E05121AB87F01121AD89F
:10108500C28C121B2D121B448E348F35D28C121735
:10109500148E348F3512000E2000030211457BFF9C
:1010A5007A1279D6E4FDFF12183D7BFF7A1279E7B3
:1010B500E4FD7F0112183D7BFF7A1279F8E4FD7F8C
:1010C5000212183DE50AC4540F2430FF121AF6E542
:1010D5000A540F2430FF121AF67BFF7A1279627DCB
:1010E500027F0212183DE509C4540F2430FF121A7D
:1010F500F6E509540F2430FF121AF67BFF7A1279B0
:10110500657D047F0212183DE508C4540F2430FFA5
:10111500121AF6E508540F2430FF121AF67BFF7AEF
:101125001279FB7D067F0212183D7BFF7A13790049
:10113500E4FD7F0312183D7F0A7E00121AB8803144
:10114500E53814601514601714601914601B1460D9
:101155001D2405701C120C3C801712178B8012126F
:101165001311800D1215E5800812142E8003121537
:101175001E300111E523B5080CE524B50907E52561
:10118500B50A02D200D3E5359522E5216480F8E55C
:10119500346480984009D202C2B4D2B5021085C326
:1011A500E5359527E5266480F8E53464809850098F
:1011B500D202C2B5D2B4021085D2A6D2A5D2A4D28B
:0C11C500A3D2A2D2B5D2B4C2020210859F
:03000B000217E8F1
:1017E800C0E0C0D0758CFC758A660537E537700295
:1017F8000536200203300002B2A7D3E53794C8E5C6
:10180800369400400D30020AC2A6C2A5C2A4C2A3E3
:10181800C2A2D3E5379490E5369401401330021004
:10182800753600753700D2A6D2A5D2A4D2A3D2A20B
:05183800D0D0D0E03229
:101A2A00E4F5147580FFC292C290D291D292E580F9
:101A3A0030E71005147F017E00121AB8E514C3942A
:051A4A003C40EBC292DC
:011A4F002274
:101AD8008F13121A2AC292C290C2910000851380F5
:0E1AE8000000D2927F017E00121AB8C2922234
:101AF6008F13121A2AC292D290C2910000851380C7
:0E1B06000000D2927F017E00121AB8C2922215
:10183D008D0F8B108A118912EF1460101460131420
:10184D0060162403701AE50F24808010E50F249094
:10185D00800AE50F24888004E50F2498FF121AD81A
:10186D00AB10AA11A912120B78FF6010121AF674A0
:0D187D00012512F512E43511F51180E42269
:1018D400C2937F327E00121AB8D2937F907E011297
:1018E4001AB87F30121AD87F327E00121AB87F01DC
:1018F400121AD87F327E00121AB87F06121AD87FC5
:10190400327E00121AB87F0C121AD87F327E00027F
:021914001AB8FF
:0700030080828486888A8C4C
:091AAE00070802011709120119D1
:1019CB00C29500C29700D29500E4FEEF139296EFFA
:1019DB00C313FFD29700C297000EBE08EEE4FEEDD4
:1019EB00139296EDC313FDD29700C297000EBE085B
:0419FB00EEC29500A3
:0119FF0022C5
:10188A00C29500C29700D29500E4FDEF139296EF3D
:10189A00C313FFD29700C297000DBD08EE00E4FD06
:1018AA00A296E433FFC43333335480FCEEC3134CA3
:1018BA00FED29700C297000DBD08E5C29500D297E7
:0918CA0000C29600D29600AF06A0
:0118D30022F2
:101B2D00E4FBEB9000039304FF12188A74082BF862
:061B3D00A6070BBB07EC3C
:011B4300227F
:101A0000C294751046AF101510EF70F9D294E4F53A
:101A1000103094137F017E00121AB80510E510D320
:091A2000940540ED7F00227F01D6
:011A2900229A
:10199500E4FBFAC2940511E51170020510EF1392EC
:1019A50094751000751106E5111511AC107002152E
:1019B500104C70F3D294EFC313FF0BBB00010AEB7D
:0519C50064084A70CE29
:0119CA0022FA
:101957007D087C00C2940FBF0000D2940FBF000027
:101967000FBF0000A294E433C43333335480FBE940
:10197700C3134BF97E007F04EF1FAA0670011E4AAE
:0D19870070F6ED1D70011CED4C70C9AF0134
:011994002230
:101B5B00121A007F017E00121AB87FCC1219957FE2
:041B6B004402199582
:101B6F00121A007F017E00121AB87FCC1219957FCE
:041B7F00BE021995F4
:101B4400E4FFFE121B5B121B6F1219578F0F121941
:061B540057EFFEE50FFF54
:011B5A002268
:051BA200121BA7D2B7E1
:081BA7007F017E02DEFEDFFA81
:011BAF002213
:0F1B9300D2B6121BA2C2B6121BA7C2B7021BA763
:0A1BBC00C2B6121BA2D2B6021BA78C
:02191600AD071B
:10191800E4FBFAEDC4131313540124FF92B6ED252A
:10192800E0FD121BA2C2B7121BA70BBB08E5D2B67B
:10193800121BA7D2B730B60F0AEAD394C840F6C232
:0E194800B7121BA77F0022C2B7121BA77F0198
:01195600226E
:101A5000E4FDFCD2B6121BA7D2B7121BA7EC25E0FF
:101A6000FCA2B6E4334204121BA7C2B7121BA70D97
:051A7000BD08E5AF0414
:011A7500224E
:101B1400AC05A907121B937FA0121916AF01121965
:091B240016AF04121916021BBCD5
:021A7600AC07BB
:101A7800121B937FA0121916AF04121916121B938A
:0F1A88007FA1121916121A50AD07121BBCAF0521
:011A9700222C
:101AB800E4FDFCC3ED9FEC9E5015E4FBFA0BBB0064
:0F1AC800010AEB646E4A70F50DBD00010C80E45D
:011AD70022EC
:1008BB00020B63E86480F8E933E83360110460F0FD
:1008CB00ED33EC337009E8FCE9FDEAFEEBFF2204A3
:1008DB0060DED3EB9FEA9EE99DE8C2E78CF0C2F79E
:1008EB0095F0400CE8CCF8E9CDF9EACEFAEBCFFB6A
:1008FB00120B2E85D0F05804700320D5B3E804708A
:10090B00075002B2D5020B6D92D5EC0460F7E4CC24
:10091B00C0E0C398F8603B94186008400DD0E0FB32
:10092B00020B45E4FBFAC9FC8028E830E406E4C975
:10093B00FBE4CAFCE830E305E4C9CACBFCE8540786
:10094B006010F8C3E913F9EA13FAEB13FBEC13FC91
:10095B00D8F130F52FC3E49CFCEF9BFFEE9AFEED34
:10096B0099FDD0E0FBEF4E4D4C701222DB03020BD6
:10097B006AEC2CFCEF33FFEE33FEED33FDED30E78D
:10098B00EB020B45EF2BFFEE3AFEED39FDD0E0FB12
:10099B0050130BBB0003020B6DED13FDEE13FEEFBB
:0809AB0013FFEC13FC020B45E5
:1009B300EC4D6011E8497017ED33EC3304600DE43E
:1009C300FCFFFEFD22E933E8330470F8020B6312E7
:1009D3000B2E58046009E4CC2481500628500902E8
:1009E3000B6D284003020B6AC0E0EB4A7044B980E8
:1009F30006D0E0FB020B59EF4E701CBD8008EBFFE5
:100A0300EAFEE9FD80EBE98DF0A4FEE5F0020A9C25
:100A1300E9CDF9EAFEEBFFEF89F0A4FCE5F0CE891E
:100A2300F0A42EFFE435F0CD89F0A42DFEE435F0DB
:100A33008067EF4E7005BD80D780C3EF8BF0A4AC09
:100A4300F0EE8BF0A42CFCE435F0F8EF8AF0A42C44
:100A5300E5F038FCE433CB8DF0A42CFCE5F03BF857
:100A6300EE8AF0A42CFCE5F038F8E433CF89F0A447
:100A73002CFCE5F038CF3400CE89F0A42FFFE5F04D
:100A83003EFEE433C98DF0A42EFEE5F039CD8AF0A5
:100A9300A42FFFE5F03EFEE43DFD33D0E0FB50071D
:100AA3000BBB000F020B6DEC2CFCEF33FFEE33FEA0
:060AB300ED33FD020B45CE
:100AB90075F020800E75F010800575F0087D007EB8
:100AC900007F003392D530D503120BD9EC33401097
:100AD900EF33FFEE33FEED33FDEC33FCD5F0ED22C1
:0E0AE900E5F0247EA2D513CC92E7CDCEFF22FD
:100AF700EDD2E7CD33EC3392D524814006E4FFFEF7
:100B0700FDFC22FCE4CFCECDCC24E0501174FF8055
:100B1700EDC3CC13CCCD13CDCE13CECF13CF0470F2
:070B2700F030D5DE020BD90E
:100B2E00E9D2E7C933E833F892D5EDD2E7CD33EC0D
:070B3E0033FC5002B2D52286
:100B4500EC30E7100FBF000C0EBE00080DBD000411
:100B55000BEB6014A2D5EB13FCED92E7FD2274FFBD
:100B6500FCFDFEFF22E480F8A2D574FF13FC7D8016
:030B7500E480EF2A
:030000000216885D
:0C168800787FE4F6D8FD75813C0216CF97
:100B7800BB010689828A83E0225002E722BBFE027B
:090B8800E32289828A83E49322AE
:100B9100EF8DF0A4A8F0CF8CF0A428CE8DF0A42E78
:020BA100FE2232
:100BA300C2D5EC30E709B2D5E4C39DFDE49CFCEE6D
:100BB30030E715B2D5E4C39FFFE49EFE120BE7C3F3
:100BC300E49DFDE49CFC8003120BE730D507C3E4EE
:060BD3009FFFE49EFE22DC
:0E0BD900C3E49FFFE49EFEE49DFDE49CFC222D
:0C1BB000EE30E707C3E49FFFE49EFE2236
:10169400020FB5E493A3F8E493A34003F68001F2A8
:1016A40008DFF48029E493A3F85407240CC8C33357
:1016B400C4540F4420C8834004F456800146F6DF26
:1016C400E4800B0102040810204080901A98E47E04
:1016D400019360BCA3FF543F30E509541FFEE4931B
:1016E400A360010ECF54C025E060A840B8E493A3E2
:1016F400FAE493A3F8E493A3C8C582C8CAC583CA0D
:10170400F0A3C8C582C8CAC583CADFE9DEE780BEC4
:011AB700002E
:100BE700BC000BBE0029EF8DF084FFADF022E4CCF2
:100BF700F875F008EF2FFFEE33FEEC33FCEE9DECBB
:100C0700984005FCEE9DFE0FD5F0E9E4CEFD22ED00
:100C1700F8F5F0EE8420D21CFEADF075F008EF2F4A
:100C2700FFED33FD4007985006D5F0F222C398FD3B
:050C37000FD5F0EA22D8
:00000001FF
